{
  "transactions": [
    {
      "hash": "0x89278c8fb60b3c9027596fe95066a7d2111de70dbfec91314c8354f0a6f411b4",
      "transactionType": "CALL",
      "contractName": null,
      "contractAddress": "0xabd7925b6a72937fa38f56a2aa466f17beffee65",
      "function": "deploy(address)",
      "arguments": [
        "0x1ca4ECaF0E13ca833c80dA835DEEa15e1684361d"
      ],
      "transaction": {
        "from": "0x1ca4ecaf0e13ca833c80da835deea15e1684361d",
        "to": "0xabd7925b6a72937fa38f56a2aa466f17beffee65",
        "gas": "0x4708a3",
        "value": "0x0",
        "input": "0x4c96a3890000000000000000000000001ca4ecaf0e13ca833c80da835deea15e1684361d",
        "nonce": "0x6b",
        "chainId": "0x1"
      },
      "additionalContracts": [
        {
          "transactionType": "CREATE",
          "contractName": "ALMProxy",
          "address": "0xc0060bb5d333c1f2d3159058ae3223d4fd73abe4",
          "initCode": "0x608060405234801561000f575f5ffd5b50604051610a74380380610a7483398101604081905261002e9161010f565b6001600160a01b03811661005557604051633944ed8760e11b815260040160405180910390fd5b61005f5f82610066565b505061013c565b5f828152602081815260408083206001600160a01b038516845290915281205460ff16610106575f838152602081815260408083206001600160a01b03861684529091529020805460ff191660011790556100be3390565b6001600160a01b0316826001600160a01b0316847f2f8788117e7eff1d82e926ec794901d17c78024a50270940304540a733656f0d60405160405180910390a4506001610109565b505f5b92915050565b5f6020828403121561011f575f5ffd5b81516001600160a01b0381168114610135575f5ffd5b9392505050565b61092b806101495f395ff3fe60806040526004361061009d575f3560e01c80638ce4a1f2116100625780638ce4a1f21461018457806391d14854146101a3578063a217fddf146101c2578063d547741f146101d5578063d71f93f8146101f4578063ee0fc12114610207575f5ffd5b806301ffc9a7146100a8578063248a9ca3146100dc5780632f2ff15d1461011857806336568abe146101395780633aada4d214610158575f5ffd5b366100a457005b5f5ffd5b3480156100b3575f5ffd5b506100c76100c236600461071d565b610227565b60405190151581526020015b60405180910390f35b3480156100e7575f5ffd5b5061010a6100f6366004610744565b5f9081526020819052604090206001015490565b6040519081526020016100d3565b348015610123575f5ffd5b50610137610132366004610776565b61025d565b005b348015610144575f5ffd5b50610137610153366004610776565b610287565b348015610163575f5ffd5b506101776101723660046107e5565b6102bf565b6040516100d39190610834565b34801561018f575f5ffd5b5061017761019e3660046107e5565b61032a565b3480156101ae575f5ffd5b506100c76101bd366004610776565b61038c565b3480156101cd575f5ffd5b5061010a5f81565b3480156101e0575f5ffd5b506101376101ef366004610776565b6103b4565b610177610202366004610869565b6103d8565b348015610212575f5ffd5b5061010a5f5160206108d65f395f51905f5281565b5f6001600160e01b03198216637965db0b60e01b148061025757506301ffc9a760e01b6001600160e01b03198316145b92915050565b5f8281526020819052604090206001015461027781610445565b6102818383610452565b50505050565b6001600160a01b03811633146102b05760405163334bd91960e11b815260040160405180910390fd5b6102ba82826104e1565b505050565b60605f5160206108d65f395f51905f526102d881610445565b61032184848080601f0160208091040260200160405190810160405280939291908181526020018383808284375f92019190915250506001600160a01b0389169291505061054a565b95945050505050565b60605f5160206108d65f395f51905f5261034381610445565b61032184848080601f0160208091040260200160405190810160405280939291908181526020018383808284375f92019190915250506001600160a01b0389169291505061055e565b5f918252602082815260408084206001600160a01b0393909316845291905290205460ff1690565b5f828152602081905260409020600101546103ce81610445565b61028183836104e1565b60605f5160206108d65f395f51905f526103f181610445565b61043b85858080601f0160208091040260200160405190810160405280939291908181526020018383808284375f9201919091525050506001600160a01b038916919050856105c7565b9695505050505050565b61044f813361065b565b50565b5f61045d838361038c565b6104da575f838152602081815260408083206001600160a01b03861684529091529020805460ff191660011790556104923390565b6001600160a01b0316826001600160a01b0316847f2f8788117e7eff1d82e926ec794901d17c78024a50270940304540a733656f0d60405160405180910390a4506001610257565b505f610257565b5f6104ec838361038c565b156104da575f838152602081815260408083206001600160a01b0386168085529252808320805460ff1916905551339286917ff6391f5c32d9c69d2a47ea670b442974b53935d1edc7fd64eb21e047a839171b9190a4506001610257565b606061055783835f6105c7565b9392505050565b60605f5f846001600160a01b03168460405161057a91906108bf565b5f60405180830381855af49150503d805f81146105b2576040519150601f19603f3d011682016040523d82523d5f602084013e6105b7565b606091505b5091509150610321858383610698565b6060814710156105f15760405163cd78605960e01b81523060048201526024015b60405180910390fd5b5f5f856001600160a01b0316848660405161060c91906108bf565b5f6040518083038185875af1925050503d805f8114610646576040519150601f19603f3d011682016040523d82523d5f602084013e61064b565b606091505b509150915061043b868383610698565b610665828261038c565b6106945760405163e2517d3f60e01b81526001600160a01b0382166004820152602481018390526044016105e8565b5050565b6060826106ad576106a8826106f4565b610557565b81511580156106c457506001600160a01b0384163b155b156106ed57604051639996b31560e01b81526001600160a01b03851660048201526024016105e8565b5080610557565b8051156107045780518082602001fd5b604051630a12f52160e11b815260040160405180910390fd5b5f6020828403121561072d575f5ffd5b81356001600160e01b031981168114610557575f5ffd5b5f60208284031215610754575f5ffd5b5035919050565b80356001600160a01b0381168114610771575f5ffd5b919050565b5f5f60408385031215610787575f5ffd5b823591506107976020840161075b565b90509250929050565b5f5f83601f8401126107b0575f5ffd5b50813567ffffffffffffffff8111156107c7575f5ffd5b6020830191508360208285010111156107de575f5ffd5b9250929050565b5f5f5f604084860312156107f7575f5ffd5b6108008461075b565b9250602084013567ffffffffffffffff81111561081b575f5ffd5b610827868287016107a0565b9497909650939450505050565b602081525f82518060208401528060208501604085015e5f604082850101526040601f19601f83011684010191505092915050565b5f5f5f5f6060858703121561087c575f5ffd5b6108858561075b565b9350602085013567ffffffffffffffff8111156108a0575f5ffd5b6108ac878288016107a0565b9598909750949560400135949350505050565b5f82518060208501845e5f92019182525091905056fe70546d1c92f8c2132ae23a23f5177aa8526356051c7510df99f50e012d221529a26469706673582212201b32822db9827c91e01330547b895d0a717b24a13dff6829cef2bb05f40800c764736f6c63430008220033000000000000000000000000abd7925b6a72937fa38f56a2aa466f17beffee65"
        },
        {
          "transactionType": "CREATE",
          "contractName": "RateLimits",
          "address": "0xc9dea685709d154ca1218bee1d409b3e44f9cb26",
          "initCode": "0x608060405234801561000f575f5ffd5b50604051610c3e380380610c3e83398101604081905261002e9161010f565b6001600160a01b03811661005557604051633944ed8760e11b815260040160405180910390fd5b61005f5f82610066565b505061013c565b5f828152602081815260408083206001600160a01b038516845290915281205460ff16610106575f838152602081815260408083206001600160a01b03861684529091529020805460ff191660011790556100be3390565b6001600160a01b0316826001600160a01b0316847f2f8788117e7eff1d82e926ec794901d17c78024a50270940304540a733656f0d60405160405180910390a4506001610109565b505f5b92915050565b5f6020828403121561011f575f5ffd5b81516001600160a01b0381168114610135575f5ffd5b9392505050565b610af5806101495f395ff3fe608060405234801561000f575f5ffd5b50600436106100f0575f3560e01c806369d4ac0311610093578063d547741f11610063578063d547741f146101ed578063ee0fc12114610200578063f6a82d1a14610227578063ff7a9fa41461023a575f5ffd5b806369d4ac03146101ad57806391d14854146101c0578063a217fddf146101d3578063c8817503146101da575f5ffd5b806334323fba116100ce57806334323fba1461016157806336568abe146101745780633bf076b0146101875780635c093b741461019a575f5ffd5b806301ffc9a7146100f4578063248a9ca31461011c5780632f2ff15d1461014c575b5f5ffd5b610107610102366004610977565b610280565b60405190151581526020015b60405180910390f35b61013e61012a36600461099e565b5f9081526020819052604090206001015490565b604051908152602001610113565b61015f61015a3660046109b5565b6102b6565b005b61015f61016f3660046109ee565b6102e0565b61015f6101823660046109b5565b6102f2565b61013e610195366004610a17565b610325565b61013e6101a8366004610a17565b610485565b61013e6101bb36600461099e565b61058a565b6101076101ce3660046109b5565b610615565b61013e5f81565b61015f6101e836600461099e565b61063d565b61015f6101fb3660046109b5565b61064f565b61013e7f70546d1c92f8c2132ae23a23f5177aa8526356051c7510df99f50e012d22152981565b61015f610235366004610a37565b610673565b61024d61024836600461099e565b6107b9565b60405161011391908151815260208083015190820152604080830151908201526060918201519181019190915260800190565b5f6001600160e01b03198216637965db0b60e01b14806102b057506301ffc9a760e01b6001600160e01b03198316145b92915050565b5f828152602081905260409020600101546102d081610823565b6102da838361082d565b50505050565b6102ed8383838542610673565b505050565b6001600160a01b038116331461031b5760405163334bd91960e11b815260040160405180910390fd5b6102ed82826108bc565b5f7f70546d1c92f8c2132ae23a23f5177aa8526356051c7510df99f50e012d22152961035081610823565b5f8481526001602052604090208054806103ad5760405162461bcd60e51b815260206004820152601960248201527814985d19531a5b5a5d1ccbde995c9bcb5b585e105b5bdd5b9d603a1b60448201526064015b60405180910390fd5b5f1981036103c0575f199350505061047e565b5f6103ca8761058a565b90508086111561041c5760405162461bcd60e51b815260206004820152601e60248201527f526174654c696d6974732f726174652d6c696d69742d6578636565646564000060448201526064016103a4565b6104268682610a82565b60028401819055426003850155604080518881526020810184905290810182905290955087907f2f9bcbd665fb7984aac3b6a05bb4ac8b303137a34ed4cc5fcd47622f52bdf046906060015b60405180910390a25050505b5092915050565b5f7f70546d1c92f8c2132ae23a23f5177aa8526356051c7510df99f50e012d2215296104b081610823565b5f8481526001602052604090208054806105085760405162461bcd60e51b815260206004820152601960248201527814985d19531a5b5a5d1ccbde995c9bcb5b585e105b5bdd5b9d603a1b60448201526064016103a4565b5f19810361051b575f199350505061047e565b5f6105258761058a565b905061053a6105348783610a95565b83610925565b60028401819055426003850155604080518881526020810184905290810182905290955087907fb824249bbde4df2bf5473f603ab3aa717ea2e37b908d9fb4440b962fb656d0ac90606001610472565b5f81815260016020818152604080842081516080810183528154808252828601549482019490945260028201549281019290925260030154606082015291016105d657505f1992915050565b61060e81604001518260600151426105ee9190610a82565b83602001516105fd9190610aa8565b6106079190610a95565b8251610925565b9392505050565b5f918252602082815260408084206001600160a01b0393909316845291905290205460ff1690565b61064c815f195f5f1942610673565b50565b5f8281526020819052604090206001015461066981610823565b6102da83836108bc565b5f61067d81610823565b848311156106cd5760405162461bcd60e51b815260206004820152601d60248201527f526174654c696d6974732f696e76616c69642d6c617374416d6f756e7400000060448201526064016103a4565b4282111561071d5760405162461bcd60e51b815260206004820152601e60248201527f526174654c696d6974732f696e76616c69642d6c61737455706461746564000060448201526064016103a4565b6040805160808082018352878252602080830188815283850188815260608086018981525f8e815260018087529089902097518855935193870193909355905160028601559051600390940193909355835189815290810188905292830186905290820184905287917f356822943b80f809508a684c67d901d5c13b6a22161bf07d510e50a6cb727028910160405180910390a2505050505050565b6107e060405180608001604052805f81526020015f81526020015f81526020015f81525090565b505f908152600160208181526040928390208351608081018552815481529281015491830191909152600281015492820192909252600390910154606082015290565b61064c813361093a565b5f6108388383610615565b6108b5575f838152602081815260408083206001600160a01b03861684529091529020805460ff1916600117905561086d3390565b6001600160a01b0316826001600160a01b0316847f2f8788117e7eff1d82e926ec794901d17c78024a50270940304540a733656f0d60405160405180910390a45060016102b0565b505f6102b0565b5f6108c78383610615565b156108b5575f838152602081815260408083206001600160a01b0386168085529252808320805460ff1916905551339286917ff6391f5c32d9c69d2a47ea670b442974b53935d1edc7fd64eb21e047a839171b9190a45060016102b0565b5f818310610933578161060e565b5090919050565b6109448282610615565b6109735760405163e2517d3f60e01b81526001600160a01b0382166004820152602481018390526044016103a4565b5050565b5f60208284031215610987575f5ffd5b81356001600160e01b03198116811461060e575f5ffd5b5f602082840312156109ae575f5ffd5b5035919050565b5f5f604083850312156109c6575f5ffd5b8235915060208301356001600160a01b03811681146109e3575f5ffd5b809150509250929050565b5f5f5f60608486031215610a00575f5ffd5b505081359360208301359350604090920135919050565b5f5f60408385031215610a28575f5ffd5b50508035926020909101359150565b5f5f5f5f5f60a08688031215610a4b575f5ffd5b505083359560208501359550604085013594606081013594506080013592509050565b634e487b7160e01b5f52601160045260245ffd5b818103818111156102b0576102b0610a6e565b808201808211156102b0576102b0610a6e565b80820281158282048414176102b0576102b0610a6e56fea264697066735822122055a32435664e76ccc893089ecf88c149a75d153b5fcb40fc40d27a76c30a05f364736f6c63430008220033000000000000000000000000abd7925b6a72937fa38f56a2aa466f17beffee65"
        },
        {
          "transactionType": "CREATE",
          "contractName": "AccessControls",
          "address": "0x190451a957bb48675da9376c242449b366ab42a7",
          "initCode": "0x608060405234801561000f575f5ffd5b5060405161096b38038061096b83398101604081905261002e91610197565b6001600160a01b03811661005557604051633944ed8760e11b815260040160405180910390fd5b61005f5f82610066565b50506101bd565b5f80610072848461009c565b90508015610093575f8481526001602052604090206100919084610143565b505b90505b92915050565b5f828152602081815260408083206001600160a01b038516845290915281205460ff1661013c575f838152602081815260408083206001600160a01b03861684529091529020805460ff191660011790556100f43390565b6001600160a01b0316826001600160a01b0316847f2f8788117e7eff1d82e926ec794901d17c78024a50270940304540a733656f0d60405160405180910390a4506001610096565b505f610096565b5f610093836001600160a01b0384165f81815260018301602052604081205461013c57508154600181810184555f848152602080822090930184905584548482528286019093526040902091909155610096565b5f602082840312156101a7575f5ffd5b81516001600160a01b0381168114610093575f5ffd5b6107a1806101ca5f395ff3fe608060405234801561000f575f5ffd5b506004361061009b575f3560e01c80639010d07c116100635780639010d07c1461013257806391d148541461015d578063a217fddf14610170578063ca15c87314610177578063d547741f1461018a575f5ffd5b806301ffc9a71461009f5780631e4e0091146100c7578063248a9ca3146100dc5780632f2ff15d1461010c57806336568abe1461011f575b5f5ffd5b6100b26100ad36600461068d565b61019d565b60405190151581526020015b60405180910390f35b6100da6100d53660046106b4565b6101c7565b005b6100fe6100ea3660046106d4565b5f9081526020819052604090206001015490565b6040519081526020016100be565b6100da61011a3660046106eb565b6101e0565b6100da61012d3660046106eb565b61020a565b6101456101403660046106b4565b61023d565b6040516001600160a01b0390911681526020016100be565b6100b261016b3660046106eb565b61025b565b6100fe5f81565b6100fe6101853660046106d4565b610283565b6100da6101983660046106eb565b610299565b5f6001600160e01b03198216630fd8e49b60e11b14806101c157506101c1826102bd565b92915050565b5f6101d1816102e1565b6101db83836102ee565b505050565b5f828152602081905260409020600101546101fa816102e1565b6102048383610338565b50505050565b6001600160a01b03811633146102335760405163334bd91960e11b815260040160405180910390fd5b6101db828261036b565b5f8281526001602052604081206102549083610396565b9392505050565b5f918252602082815260408084206001600160a01b0393909316845291905290205460ff1690565b5f8181526001602052604081206101c1906103a1565b5f828152602081905260409020600101546102b3816102e1565b610204838361036b565b5f6001600160e01b03198216635a05180f60e01b14806101c157506101c1826103aa565b6102eb81336103de565b50565b5f82815260208190526040808220600101805490849055905190918391839186917fbd79b86ffe0ab8e8776151514217cd7cacd52c909f66475c3af44e129f0b00ff9190a4505050565b5f5f610344848461041f565b90508015610254575f84815260016020526040902061036390846104ae565b509392505050565b5f5f61037784846104c2565b90508015610254575f848152600160205260409020610363908461052b565b5f610254838361053f565b5f6101c1825490565b5f6001600160e01b03198216637965db0b60e01b14806101c157506301ffc9a760e01b6001600160e01b03198316146101c1565b6103e8828261025b565b61041b5760405163e2517d3f60e01b81526001600160a01b03821660048201526024810183905260440160405180910390fd5b5050565b5f61042a838361025b565b6104a7575f838152602081815260408083206001600160a01b03861684529091529020805460ff1916600117905561045f3390565b6001600160a01b0316826001600160a01b0316847f2f8788117e7eff1d82e926ec794901d17c78024a50270940304540a733656f0d60405160405180910390a45060016101c1565b505f6101c1565b5f610254836001600160a01b038416610565565b5f6104cd838361025b565b156104a7575f838152602081815260408083206001600160a01b0386168085529252808320805460ff1916905551339286917ff6391f5c32d9c69d2a47ea670b442974b53935d1edc7fd64eb21e047a839171b9190a45060016101c1565b5f610254836001600160a01b0384166105aa565b5f825f01828154811061055457610554610724565b905f5260205f200154905092915050565b5f8181526001830160205260408120546104a757508154600181810184555f8481526020808220909301849055845484825282860190935260409020919091556101c1565b5f8181526001830160205260408120548015610684575f6105cc600183610738565b85549091505f906105df90600190610738565b905080821461063e575f865f0182815481106105fd576105fd610724565b905f5260205f200154905080875f01848154811061061d5761061d610724565b5f918252602080832090910192909255918252600188019052604090208390555b855486908061064f5761064f610757565b600190038181905f5260205f20015f90559055856001015f8681526020019081526020015f205f9055600193505050506101c1565b5f9150506101c1565b5f6020828403121561069d575f5ffd5b81356001600160e01b031981168114610254575f5ffd5b5f5f604083850312156106c5575f5ffd5b50508035926020909101359150565b5f602082840312156106e4575f5ffd5b5035919050565b5f5f604083850312156106fc575f5ffd5b8235915060208301356001600160a01b0381168114610719575f5ffd5b809150509250929050565b634e487b7160e01b5f52603260045260245ffd5b818103818111156101c157634e487b7160e01b5f52601160045260245ffd5b634e487b7160e01b5f52603160045260245ffdfea26469706673582212202477df89476724b74752037ab566c707802b9ff977e2a4de9d2a9badd1ef1a8764736f6c634300082200330000000000000000000000001ca4ecaf0e13ca833c80da835deea15e1684361d"
        },
        {
          "transactionType": "CREATE",
          "contractName": "Controller",
          "address": "0x4a412f032536f6c4139f24b813872f8a44cf7148",
          "initCode": "0x60a060405234801561000f575f5ffd5b50604051611c54380380611c5483398101604081905261002e91610304565b5f516020611c345f395f51905f52805468010000000000000000810460ff1615906001600160401b03165f811580156100645750825b90505f826001600160401b0316600114801561007f5750303b155b90508115801561008d575080155b156100ab5760405163f92ee8a960e01b815260040160405180910390fd5b84546001600160401b031916600117855583156100d957845460ff60401b1916680100000000000000001785555b6001600160a01b03891661010057604051633ecdc80b60e21b815260040160405180910390fd5b6001600160a01b0388166101275760405163d86d5d7b60e01b815260040160405180910390fd5b6001600160a01b03871661014e5760405163173e2ccb60e31b815260040160405180910390fd5b6001600160a01b0386166101755760405163571aaa5760e11b815260040160405180910390fd5b61017d61026e565b7f77adf60bdbfedf206f8b8310f3d364080b7f61dcc0e46caac13c29bb1eb5cc0080546001600160a01b03199081166001600160a01b038c8116919091179092557f77adf60bdbfedf206f8b8310f3d364080b7f61dcc0e46caac13c29bb1eb5cc01805482168a84161790557f77adf60bdbfedf206f8b8310f3d364080b7f61dcc0e46caac13c29bb1eb5cc0280549091168883161790558816608052831561026057845460ff60401b19168555604051600181527fc7f505b2f371ae2175ee4913f4499e1f2633a7b5936321eed1cdaeb6115181d29060200160405180910390a15b505050505050505050610355565b610276610280565b61027e6102bb565b565b5f516020611c345f395f51905f525468010000000000000000900460ff1661027e57604051631afcd79f60e31b815260040160405180910390fd5b6102c3610280565b60017f9b779b17422d0df92223018b32b4d1fa46e071723d6817e2486d003becc55f0055565b80516001600160a01b03811681146102ff575f5ffd5b919050565b5f5f5f5f60808587031215610317575f5ffd5b610320856102e9565b935061032e602086016102e9565b925061033c604086016102e9565b915061034a606086016102e9565b905092959194509250565b6080516118c06103745f395f8181610281015261092f01526118c05ff3fe60806040526004361061009b575f3560e01c8063748365ef11610063578063748365ef146102e7578063af66664014610323578063c2ba1cfb14610342578063c4a500f414610363578063ec556889146103ff578063f09215941461043b5761009b565b80631f2ab36b146101f0578063339a441f1461022557806347e51d381461024457806359659e90146102705780636dd5b69d146102bb575b3660048110156100ca57604051631659418b60e01b81526004016100c191815260200190565b60405180910390fd5b505f80356001600160e01b0319168082527fee25394e09bdf9f095ffaf6289395c59de06e33ff54692b0774d5012253c4d036020526040909120805490916001600160a01b03909116908161013f57604051635359501360e01b81526001600160e01b031990911660048201526024016100c1565b5081545f9081906001600160a01b03841690600160a01b900460e01b6101683660048186611268565b60405160200161017a9392919061128f565b60408051601f1981840301815290829052610194916112b2565b5f60405180830381855af49150503d805f81146101cc576040519150601f19603f3d011682016040523d82523d5f602084013e6101d1565b606091505b5091509150815f81146101e657815160208301f35b815160208301fd5b005b3480156101fb575f5ffd5b5061020f61020a366004611310565b610477565b60405161021c9190611371565b60405180910390f35b348015610230575f5ffd5b506101ee61023f366004611310565b610591565b34801561024f575f5ffd5b5061026361025e366004611310565b61068e565b60405161021c9190611435565b34801561027b575f5ffd5b506102a37f000000000000000000000000000000000000000000000000000000000000000081565b6040516001600160a01b03909116815260200161021c565b3480156102c6575f5ffd5b506102da6102d5366004611498565b61080e565b60405161021c91906114af565b3480156102f2575f5ffd5b507f77adf60bdbfedf206f8b8310f3d364080b7f61dcc0e46caac13c29bb1eb5cc00546001600160a01b03166102a3565b34801561032e575f5ffd5b506101ee61033d366004611310565b6108e8565b34801561034d575f5ffd5b50610356610b13565b60405161021c91906114c1565b34801561036e575f5ffd5b506103f261037d366004611544565b6040805180820182525f80825260209182018190526001600160e01b031993841681527fee25394e09bdf9f095ffaf6289395c59de06e33ff54692b0774d5012253c4d0382528290208251808401909352546001600160a01b0381168352600160a01b900460e01b9092169181019190915290565b60405161021c9190611566565b34801561040a575f5ffd5b507f77adf60bdbfedf206f8b8310f3d364080b7f61dcc0e46caac13c29bb1eb5cc01546001600160a01b03166102a3565b348015610446575f5ffd5b507f77adf60bdbfedf206f8b8310f3d364080b7f61dcc0e46caac13c29bb1eb5cc02546001600160a01b03166102a3565b60608167ffffffffffffffff81111561049257610492611574565b6040519080825280602002602001820160405280156104d657816020015b604080518082019091525f80825260208201528152602001906001900390816104b05790505b5090505f51602061186b5f395f51905f525f5b8381101561058957816003015f86868481811061050857610508611588565b905060200201602081019061051d9190611544565b6001600160e01b0319908116825260208083019390935260409182015f208251808401909352546001600160a01b0381168352600160a01b900460e01b1691810191909152835184908390811061057657610576611588565b60209081029190910101526001016104e9565b505092915050565b610599610c7d565b6105a1610cc7565b806105bf5760405163521299a960e01b815260040160405180910390fd5b5f51602061186b5f395f51905f525f5b8281101561065f575f8484838181106105ea576105ea611588565b6020029190910135915061060090508382610d84565b81906106225760405163e5c5504760e01b81526004016100c191815260200190565b5061062c81610d98565b60405181907f043c2a2fce5883ae183cf4a77a5b7883a31824c8f21570b619972fbe500b79e6905f90a2506001016105cf565b505061068a60017f9b779b17422d0df92223018b32b4d1fa46e071723d6817e2486d003becc55f0055565b5050565b60608167ffffffffffffffff8111156106a9576106a9611574565b6040519080825280602002602001820160405280156106ee57816020015b604080518082019091525f8152606060208201528152602001906001900390816106c75790505b5090505f51602061186b5f395f51905f525f5b8381101561058957816002015f86868481811061072057610720611588565b9050602002013581526020019081526020015f206040518060400160405290815f82015f9054906101000a90046001600160a01b03166001600160a01b03166001600160a01b0316815260200160018201805480602002602001604051908101604052809291908181526020015f905b828210156107e1575f84815260209081902060408051808201909152908401546001600160e01b031960e082811b8216845264010000000090920490911b1681830152825260019092019101610790565b50505050815250508382815181106107fb576107fb611588565b6020908102919091010152600101610701565b6040805180820182525f80825260606020808401919091528482527fee25394e09bdf9f095ffaf6289395c59de06e33ff54692b0774d5012253c4d0281528382208451808601865281546001600160a01b03168152600182018054875181860281018601909852808852959691959294868501949293919284015b828210156108da575f84815260209081902060408051808201909152908401546001600160e01b031960e082811b8216845264010000000090920490911b1681830152825260019092019101610889565b505050915250909392505050565b6108f0610c7d565b6108f8610cc7565b806109165760405163521299a960e01b815260040160405180910390fd5b6040516308fca3a760e31b81525f906001600160a01b037f000000000000000000000000000000000000000000000000000000000000000016906347e51d3890610966908690869060040161159c565b5f60405180830381865afa158015610980573d5f5f3e3d5ffd5b505050506040513d5f823e601f3d908101601f191682016040526109a79190810190611650565b90505f51602061186b5f395f51905f525f5b83811015610ae7575f8585838181106109d4576109d4611588565b9050602002013590505f8483815181106109f0576109f0611588565b602002602001015190505f6001600160a01b0316815f01516001600160a01b031614158290610a355760405163e5c5504760e01b81526004016100c191815260200190565b5080516001600160a01b03163b610a5f57604051630df0611960e31b815260040160405180910390fd5b5f81602001515111610a845760405163521299a960e01b815260040160405180910390fd5b610a8e8483610ea2565b610a9b57610a9b82610d98565b610aa58282610ead565b817f5d055c4f05bd18deea319d5a3203b45d847aedd23073a618067b95ddd537c94682604051610ad591906114af565b60405180910390a250506001016109b9565b50505061068a60017f9b779b17422d0df92223018b32b4d1fa46e071723d6817e2486d003becc55f0055565b60605f51602061186b5f395f51905f525f610b2d82611081565b90508067ffffffffffffffff811115610b4857610b48611574565b604051908082528060200260200182016040528015610b8157816020015b610b6e6111ea565b815260200190600190039081610b665790505b5092505f5b81811015610c77575f610b99848361108a565b6040805180820182528281525f8381526002880160209081528382208451808601865281546001600160a01b03168152600182018054875181860281018601909852808852979850949683880196919592948685019492939284015b82821015610c46575f84815260209081902060408051808201909152908401546001600160e01b031960e082811b8216845264010000000090920490911b1681830152825260019092019101610bf5565b5050505081525050815250858381518110610c6357610c63611588565b602090810291909101015250600101610b86565b50505090565b7f9b779b17422d0df92223018b32b4d1fa46e071723d6817e2486d003becc55f00805460011901610cc157604051633ee5aeb560e01b815260040160405180910390fd5b60029055565b7f77adf60bdbfedf206f8b8310f3d364080b7f61dcc0e46caac13c29bb1eb5cc0054604051632474521560e21b81525f60048201523360248201526001600160a01b03909116906391d1485490604401602060405180830381865afa158015610d32573d5f5f3e3d5ffd5b505050506040513d601f19601f82011682018060405250810190610d5691906117fb565b3390610d8157604051630bd4212160e11b81526001600160a01b0390911660048201526024016100c1565b50565b5f610d8f8383611095565b90505b92915050565b5f8181527fee25394e09bdf9f095ffaf6289395c59de06e33ff54692b0774d5012253c4d026020526040902060010180545f51602061186b5f395f51905f5291905b8015610e6f57600383015f83610def8461182e565b93508381548110610e0257610e02611588565b5f9182526020808320919091015460e01b6001600160e01b0319168352820192909252604001902080546001600160c01b03191690558154829080610e4957610e49611843565b5f8281526020902081015f19908101805467ffffffffffffffff19169055019055610dda565b505f838152600283016020526040812080546001600160a01b031916815590610e9b6001830182611225565b5050505050565b5f610d8f8383611178565b5f8281527fee25394e09bdf9f095ffaf6289395c59de06e33ff54692b0774d5012253c4d02602090815260408220835181546001600160a01b0319166001600160a01b03909116178155908301515f51602061186b5f395f51905f52925b8151811015611079575f828281518110610f2757610f27611588565b60200260200101515f015190505f838381518110610f4757610f47611588565b6020908102919091018101518101516001600160e01b031984165f9081526003890190925260409091205490915082906001600160a01b031615610fab57604051635992d88760e01b81526001600160e01b031990911660048201526024016100c1565b5084600101848481518110610fc257610fc2611588565b6020908102919091018101518254600181810185555f9485528385208351920180549385015160e090811c6401000000000267ffffffffffffffff1990951693811c93909317939093179092556040805180820182528c516001600160a01b0390811682526001600160e01b031997881682870190815298909716865260038c0190945290932091518254955190931c600160a01b026001600160c01b031990951692909316919091179290921790915501610f0b565b505050505050565b5f610d92825490565b5f610d8f83836111c4565b5f818152600183016020526040812054801561116f575f6110b7600183611857565b85549091505f906110ca90600190611857565b9050808214611129575f865f0182815481106110e8576110e8611588565b905f5260205f200154905080875f01848154811061110857611108611588565b5f918252602080832090910192909255918252600188019052604090208390555b855486908061113a5761113a611843565b600190038181905f5260205f20015f90559055856001015f8681526020019081526020015f205f905560019350505050610d92565b5f915050610d92565b5f8181526001830160205260408120546111bd57508154600181810184555f848152602080822090930184905584548482528286019093526040902091909155610d92565b505f610d92565b5f825f0182815481106111d9576111d9611588565b905f5260205f200154905092915050565b60405180604001604052805f815260200161122060405180604001604052805f6001600160a01b03168152602001606081525090565b905290565b5080545f8255905f5260205f209061123d919061123f565b565b5f5b8082111561126357808301805467ffffffffffffffff19169055600101611241565b505050565b5f5f85851115611276575f5ffd5b83861115611282575f5ffd5b5050820193919092039150565b6001600160e01b031984168152818360048301375f910160040190815292915050565b5f82518060208501845e5f920191825250919050565b5f5f83601f8401126112d8575f5ffd5b50813567ffffffffffffffff8111156112ef575f5ffd5b6020830191508360208260051b8501011115611309575f5ffd5b9250929050565b5f5f60208385031215611321575f5ffd5b823567ffffffffffffffff811115611337575f5ffd5b611343858286016112c8565b90969095509350505050565b80516001600160a01b031682526020908101516001600160e01b031916910152565b602080825282518282018190525f918401906040840190835b818110156113b35761139d83855161134f565b602093909301926040929092019160010161138a565b509095945050505050565b80516001600160a01b03168252602080820151604082850181905281519085018190525f929190910190829060608601905b8083101561142b57835180516001600160e01b03199081168452602091820151168184015290930192600192909201916040909101906113f0565b5095945050505050565b5f602082016020835280845180835260408501915060408160051b8601019250602086015f5b8281101561148c57603f198786030184526114778583516113be565b9450602093840193919091019060010161145b565b50929695505050505050565b5f602082840312156114a8575f5ffd5b5035919050565b602081525f610d8f60208301846113be565b5f602082016020835280845180835260408501915060408160051b8601019250602086015f5b8281101561148c57603f19878603018452815180518652602081015190506040602087015261151960408701826113be565b95505060209384019391909101906001016114e7565b6001600160e01b031981168114610d81575f5ffd5b5f60208284031215611554575f5ffd5b813561155f8161152f565b9392505050565b60408101610d92828461134f565b634e487b7160e01b5f52604160045260245ffd5b634e487b7160e01b5f52603260045260245ffd5b602080825281018290525f6001600160fb1b038311156115ba575f5ffd5b8260051b80856040850137919091016040019392505050565b6040805190810167ffffffffffffffff811182821017156115f6576115f6611574565b60405290565b604051601f8201601f1916810167ffffffffffffffff8111828210171561162557611625611574565b604052919050565b5f67ffffffffffffffff82111561164657611646611574565b5060051b60200190565b5f60208284031215611660575f5ffd5b815167ffffffffffffffff811115611676575f5ffd5b8201601f81018413611686575f5ffd5b80516116996116948261162d565b6115fc565b8082825260208201915060208360051b8501019250868311156116ba575f5ffd5b602084015b838110156117f057805167ffffffffffffffff8111156116dd575f5ffd5b85016040818a03601f190112156116f2575f5ffd5b6116fa6115d3565b60208201516001600160a01b0381168114611713575f5ffd5b8152604082015167ffffffffffffffff81111561172e575f5ffd5b60208184010192505089601f830112611745575f5ffd5b81516117536116948261162d565b8082825260208201915060208360061b86010192508c831115611774575f5ffd5b6020850194505b828510156117d1576040858e031215611792575f5ffd5b61179a6115d3565b85516117a58161152f565b815260208601516117b58161152f565b806020830152508083525060208201915060408501945061177b565b80602085015250505080855250506020830192506020810190506116bf565b509695505050505050565b5f6020828403121561180b575f5ffd5b8151801515811461155f575f5ffd5b634e487b7160e01b5f52601160045260245ffd5b5f8161183c5761183c61181a565b505f190190565b634e487b7160e01b5f52603160045260245ffd5b81810381811115610d9257610d9261181a56feee25394e09bdf9f095ffaf6289395c59de06e33ff54692b0774d5012253c4d00a2646970667358221220c7e027cf6824555972c0a7d3c6afec8a3dd1271123095edcea3c628f4a60323664736f6c63430008220033f0c57e16840df040f15088dc2f81fe391c3923bec73e23a9662efc9c229c6a00000000000000000000000000190451a957bb48675da9376c242449b366ab42a70000000000000000000000009ea465978500399c6b4b9a356b14b00e6597e705000000000000000000000000c0060bb5d333c1f2d3159058ae3223d4fd73abe4000000000000000000000000c9dea685709d154ca1218bee1d409b3e44f9cb26"
        }
      ],
      "isFixedGasLimit": false
    },
    {
      "hash": "0x16c390ee27a164bb8ca26aabca9b58196dd151b0a4cab57b3f7b1e0af9d89912",
      "transactionType": "CALL",
      "contractName": "AccessControls",
      "contractAddress": "0x190451a957bb48675da9376c242449b366ab42a7",
      "function": "grantRole(bytes32,address)",
      "arguments": [
        "0x68bf109b95a5c15fb2bb99041323c27d15f8675e11bf7420a1cd6ad64c394f46",
        "0x8a25A24EDE9482C4Fc0738F99611BE58F1c839AB"
      ],
      "transaction": {
        "from": "0x1ca4ecaf0e13ca833c80da835deea15e1684361d",
        "to": "0x190451a957bb48675da9376c242449b366ab42a7",
        "gas": "0x2a460",
        "value": "0x0",
        "input": "0x2f2ff15d68bf109b95a5c15fb2bb99041323c27d15f8675e11bf7420a1cd6ad64c394f460000000000000000000000008a25a24ede9482c4fc0738f99611be58f1c839ab",
        "nonce": "0x6c",
        "chainId": "0x1"
      },
      "additionalContracts": [],
      "isFixedGasLimit": false
    },
    {
      "hash": "0x8bc13f77ce90f6514e2ebc850152102d710eb4d15ed0e671b8db29d9442d8203",
      "transactionType": "CALL",
      "contractName": "AccessControls",
      "contractAddress": "0x190451a957bb48675da9376c242449b366ab42a7",
      "function": "grantRole(bytes32,address)",
      "arguments": [
        "0x5dd5329f8a165b257688cafdac031f994a6462efe3eb1db3ef27aab8459f61d1",
        "0x90D8c80C028B4C09C0d8dcAab9bbB057F0513431"
      ],
      "transaction": {
        "from": "0x1ca4ecaf0e13ca833c80da835deea15e1684361d",
        "to": "0x190451a957bb48675da9376c242449b366ab42a7",
        "gas": "0x2a460",
        "value": "0x0",
        "input": "0x2f2ff15d5dd5329f8a165b257688cafdac031f994a6462efe3eb1db3ef27aab8459f61d100000000000000000000000090d8c80c028b4c09c0d8dcaab9bbb057f0513431",
        "nonce": "0x6d",
        "chainId": "0x1"
      },
      "additionalContracts": [],
      "isFixedGasLimit": false
    },
    {
      "hash": "0x8c314a4f90c51bcc0d6929f25a676b2c14a1bf0daf7044f45ce11f11774554d7",
      "transactionType": "CALL",
      "contractName": "AccessControls",
      "contractAddress": "0x190451a957bb48675da9376c242449b366ab42a7",
      "function": "setRoleAdmin(bytes32,bytes32)",
      "arguments": [
        "0x68bf109b95a5c15fb2bb99041323c27d15f8675e11bf7420a1cd6ad64c394f46",
        "0x5dd5329f8a165b257688cafdac031f994a6462efe3eb1db3ef27aab8459f61d1"
      ],
      "transaction": {
        "from": "0x1ca4ecaf0e13ca833c80da835deea15e1684361d",
        "to": "0x190451a957bb48675da9376c242449b366ab42a7",
        "gas": "0x1172a",
        "value": "0x0",
        "input": "0x1e4e009168bf109b95a5c15fb2bb99041323c27d15f8675e11bf7420a1cd6ad64c394f465dd5329f8a165b257688cafdac031f994a6462efe3eb1db3ef27aab8459f61d1",
        "nonce": "0x6e",
        "chainId": "0x1"
      },
      "additionalContracts": [],
      "isFixedGasLimit": false
    },
    {
      "hash": "0x13d55a944df52cda610c423d60bf1d1adf74772481e0ae6fff2a5750cd2db7cd",
      "transactionType": "CALL",
      "contractName": "AccessControls",
      "contractAddress": "0x190451a957bb48675da9376c242449b366ab42a7",
      "function": "grantRole(bytes32,address)",
      "arguments": [
        "0x0000000000000000000000000000000000000000000000000000000000000000",
        "0x3300f198988e4C9C63F75dF86De36421f06af8c4"
      ],
      "transaction": {
        "from": "0x1ca4ecaf0e13ca833c80da835deea15e1684361d",
        "to": "0x190451a957bb48675da9376c242449b366ab42a7",
        "gas": "0x2406c",
        "value": "0x0",
        "input": "0x2f2ff15d00000000000000000000000000000000000000000000000000000000000000000000000000000000000000003300f198988e4c9c63f75df86de36421f06af8c4",
        "nonce": "0x6f",
        "chainId": "0x1"
      },
      "additionalContracts": [],
      "isFixedGasLimit": false
    },
    {
      "hash": "0x22dcb5adaf86be57c0c956cfc1639a820aa908a19dfb4f378a85146e05f5e0a8",
      "transactionType": "CALL",
      "contractName": "ALMProxy",
      "contractAddress": "0xc0060bb5d333c1f2d3159058ae3223d4fd73abe4",
      "function": "grantRole(bytes32,address)",
      "arguments": [
        "0x0000000000000000000000000000000000000000000000000000000000000000",
        "0x3300f198988e4C9C63F75dF86De36421f06af8c4"
      ],
      "transaction": {
        "from": "0x1ca4ecaf0e13ca833c80da835deea15e1684361d",
        "to": "0xc0060bb5d333c1f2d3159058ae3223d4fd73abe4",
        "gas": "0x113a5",
        "value": "0x0",
        "input": "0x2f2ff15d00000000000000000000000000000000000000000000000000000000000000000000000000000000000000003300f198988e4c9c63f75df86de36421f06af8c4",
        "nonce": "0x70",
        "chainId": "0x1"
      },
      "additionalContracts": [],
      "isFixedGasLimit": false
    },
    {
      "hash": "0x6a502d313dc82f99244748ba87b497f22bddafde56f04c77321c19f7d3354d50",
      "transactionType": "CALL",
      "contractName": "RateLimits",
      "contractAddress": "0xc9dea685709d154ca1218bee1d409b3e44f9cb26",
      "function": "grantRole(bytes32,address)",
      "arguments": [
        "0x0000000000000000000000000000000000000000000000000000000000000000",
        "0x3300f198988e4C9C63F75dF86De36421f06af8c4"
      ],
      "transaction": {
        "from": "0x1ca4ecaf0e13ca833c80da835deea15e1684361d",
        "to": "0xc9dea685709d154ca1218bee1d409b3e44f9cb26",
        "gas": "0x123d1",
        "value": "0x0",
        "input": "0x2f2ff15d00000000000000000000000000000000000000000000000000000000000000000000000000000000000000003300f198988e4c9c63f75df86de36421f06af8c4",
        "nonce": "0x71",
        "chainId": "0x1"
      },
      "additionalContracts": [],
      "isFixedGasLimit": false
    },
    {
      "hash": "0x36f07fd316fdf2dee17922258c8055f1d7da26a64bc8fa2db9da439b772b0bb9",
      "transactionType": "CALL",
      "contractName": "AccessControls",
      "contractAddress": "0x190451a957bb48675da9376c242449b366ab42a7",
      "function": "revokeRole(bytes32,address)",
      "arguments": [
        "0x0000000000000000000000000000000000000000000000000000000000000000",
        "0x1ca4ECaF0E13ca833c80dA835DEEa15e1684361d"
      ],
      "transaction": {
        "from": "0x1ca4ecaf0e13ca833c80da835deea15e1684361d",
        "to": "0x190451a957bb48675da9376c242449b366ab42a7",
        "gas": "0x10a5f",
        "value": "0x0",
        "input": "0xd547741f00000000000000000000000000000000000000000000000000000000000000000000000000000000000000001ca4ecaf0e13ca833c80da835deea15e1684361d",
        "nonce": "0x72",
        "chainId": "0x1"
      },
      "additionalContracts": [],
      "isFixedGasLimit": false
    },
    {
      "hash": "0xa5ad72ab837af3142b5e58286d8736422c06562e83c092d370502f177f502aa4",
      "transactionType": "CALL",
      "contractName": "ALMProxy",
      "contractAddress": "0xc0060bb5d333c1f2d3159058ae3223d4fd73abe4",
      "function": "revokeRole(bytes32,address)",
      "arguments": [
        "0x0000000000000000000000000000000000000000000000000000000000000000",
        "0x1ca4ECaF0E13ca833c80dA835DEEa15e1684361d"
      ],
      "transaction": {
        "from": "0x1ca4ecaf0e13ca833c80da835deea15e1684361d",
        "to": "0xc0060bb5d333c1f2d3159058ae3223d4fd73abe4",
        "gas": "0x9287",
        "value": "0x0",
        "input": "0xd547741f00000000000000000000000000000000000000000000000000000000000000000000000000000000000000001ca4ecaf0e13ca833c80da835deea15e1684361d",
        "nonce": "0x73",
        "chainId": "0x1"
      },
      "additionalContracts": [],
      "isFixedGasLimit": false
    },
    {
      "hash": "0xb61453e88b5bf346e3a96d77ff7be68fd8e2e634b934c902b32d03b7f6599201",
      "transactionType": "CALL",
      "contractName": "RateLimits",
      "contractAddress": "0xc9dea685709d154ca1218bee1d409b3e44f9cb26",
      "function": "revokeRole(bytes32,address)",
      "arguments": [
        "0x0000000000000000000000000000000000000000000000000000000000000000",
        "0x1ca4ECaF0E13ca833c80dA835DEEa15e1684361d"
      ],
      "transaction": {
        "from": "0x1ca4ecaf0e13ca833c80da835deea15e1684361d",
        "to": "0xc9dea685709d154ca1218bee1d409b3e44f9cb26",
        "gas": "0x9220",
        "value": "0x0",
        "input": "0xd547741f00000000000000000000000000000000000000000000000000000000000000000000000000000000000000001ca4ecaf0e13ca833c80da835deea15e1684361d",
        "nonce": "0x74",
        "chainId": "0x1"
      },
      "additionalContracts": [],
      "isFixedGasLimit": false
    }
  ],
  "receipts": [
    {
      "type": "0x2",
      "status": "0x1",
      "cumulativeGasUsed": "0x146aac5",
      "logs": [
        {
          "address": "0xc0060bb5d333c1f2d3159058ae3223d4fd73abe4",
          "topics": [
            "0x2f8788117e7eff1d82e926ec794901d17c78024a50270940304540a733656f0d",
            "0x0000000000000000000000000000000000000000000000000000000000000000",
            "0x000000000000000000000000abd7925b6a72937fa38f56a2aa466f17beffee65",
            "0x000000000000000000000000abd7925b6a72937fa38f56a2aa466f17beffee65"
          ],
          "data": "0x",
          "blockHash": "0x6c17c6e6e4091eb6b7fd0120615e17fb981bfb2c0545929b3e38a6e908347b05",
          "blockNumber": "0x17fa73b",
          "blockTimestamp": "0x6a0ee1e3",
          "transactionHash": "0x89278c8fb60b3c9027596fe95066a7d2111de70dbfec91314c8354f0a6f411b4",
          "transactionIndex": "0x76",
          "logIndex": "0x1f5",
          "removed": false
        },
        {
          "address": "0xc9dea685709d154ca1218bee1d409b3e44f9cb26",
          "topics": [
            "0x2f8788117e7eff1d82e926ec794901d17c78024a50270940304540a733656f0d",
            "0x0000000000000000000000000000000000000000000000000000000000000000",
            "0x000000000000000000000000abd7925b6a72937fa38f56a2aa466f17beffee65",
            "0x000000000000000000000000abd7925b6a72937fa38f56a2aa466f17beffee65"
          ],
          "data": "0x",
          "blockHash": "0x6c17c6e6e4091eb6b7fd0120615e17fb981bfb2c0545929b3e38a6e908347b05",
          "blockNumber": "0x17fa73b",
          "blockTimestamp": "0x6a0ee1e3",
          "transactionHash": "0x89278c8fb60b3c9027596fe95066a7d2111de70dbfec91314c8354f0a6f411b4",
          "transactionIndex": "0x76",
          "logIndex": "0x1f6",
          "removed": false
        },
        {
          "address": "0x190451a957bb48675da9376c242449b366ab42a7",
          "topics": [
            "0x2f8788117e7eff1d82e926ec794901d17c78024a50270940304540a733656f0d",
            "0x0000000000000000000000000000000000000000000000000000000000000000",
            "0x0000000000000000000000001ca4ecaf0e13ca833c80da835deea15e1684361d",
            "0x000000000000000000000000abd7925b6a72937fa38f56a2aa466f17beffee65"
          ],
          "data": "0x",
          "blockHash": "0x6c17c6e6e4091eb6b7fd0120615e17fb981bfb2c0545929b3e38a6e908347b05",
          "blockNumber": "0x17fa73b",
          "blockTimestamp": "0x6a0ee1e3",
          "transactionHash": "0x89278c8fb60b3c9027596fe95066a7d2111de70dbfec91314c8354f0a6f411b4",
          "transactionIndex": "0x76",
          "logIndex": "0x1f7",
          "removed": false
        },
        {
          "address": "0x4a412f032536f6c4139f24b813872f8a44cf7148",
          "topics": [
            "0xc7f505b2f371ae2175ee4913f4499e1f2633a7b5936321eed1cdaeb6115181d2"
          ],
          "data": "0x0000000000000000000000000000000000000000000000000000000000000001",
          "blockHash": "0x6c17c6e6e4091eb6b7fd0120615e17fb981bfb2c0545929b3e38a6e908347b05",
          "blockNumber": "0x17fa73b",
          "blockTimestamp": "0x6a0ee1e3",
          "transactionHash": "0x89278c8fb60b3c9027596fe95066a7d2111de70dbfec91314c8354f0a6f411b4",
          "transactionIndex": "0x76",
          "logIndex": "0x1f8",
          "removed": false
        },
        {
          "address": "0xc0060bb5d333c1f2d3159058ae3223d4fd73abe4",
          "topics": [
            "0x2f8788117e7eff1d82e926ec794901d17c78024a50270940304540a733656f0d",
            "0x70546d1c92f8c2132ae23a23f5177aa8526356051c7510df99f50e012d221529",
            "0x0000000000000000000000004a412f032536f6c4139f24b813872f8a44cf7148",
            "0x000000000000000000000000abd7925b6a72937fa38f56a2aa466f17beffee65"
          ],
          "data": "0x",
          "blockHash": "0x6c17c6e6e4091eb6b7fd0120615e17fb981bfb2c0545929b3e38a6e908347b05",
          "blockNumber": "0x17fa73b",
          "blockTimestamp": "0x6a0ee1e3",
          "transactionHash": "0x89278c8fb60b3c9027596fe95066a7d2111de70dbfec91314c8354f0a6f411b4",
          "transactionIndex": "0x76",
          "logIndex": "0x1f9",
          "removed": false
        },
        {
          "address": "0xc9dea685709d154ca1218bee1d409b3e44f9cb26",
          "topics": [
            "0x2f8788117e7eff1d82e926ec794901d17c78024a50270940304540a733656f0d",
            "0x70546d1c92f8c2132ae23a23f5177aa8526356051c7510df99f50e012d221529",
            "0x0000000000000000000000004a412f032536f6c4139f24b813872f8a44cf7148",
            "0x000000000000000000000000abd7925b6a72937fa38f56a2aa466f17beffee65"
          ],
          "data": "0x",
          "blockHash": "0x6c17c6e6e4091eb6b7fd0120615e17fb981bfb2c0545929b3e38a6e908347b05",
          "blockNumber": "0x17fa73b",
          "blockTimestamp": "0x6a0ee1e3",
          "transactionHash": "0x89278c8fb60b3c9027596fe95066a7d2111de70dbfec91314c8354f0a6f411b4",
          "transactionIndex": "0x76",
          "logIndex": "0x1fa",
          "removed": false
        },
        {
          "address": "0xc0060bb5d333c1f2d3159058ae3223d4fd73abe4",
          "topics": [
            "0x2f8788117e7eff1d82e926ec794901d17c78024a50270940304540a733656f0d",
            "0x0000000000000000000000000000000000000000000000000000000000000000",
            "0x0000000000000000000000001ca4ecaf0e13ca833c80da835deea15e1684361d",
            "0x000000000000000000000000abd7925b6a72937fa38f56a2aa466f17beffee65"
          ],
          "data": "0x",
          "blockHash": "0x6c17c6e6e4091eb6b7fd0120615e17fb981bfb2c0545929b3e38a6e908347b05",
          "blockNumber": "0x17fa73b",
          "blockTimestamp": "0x6a0ee1e3",
          "transactionHash": "0x89278c8fb60b3c9027596fe95066a7d2111de70dbfec91314c8354f0a6f411b4",
          "transactionIndex": "0x76",
          "logIndex": "0x1fb",
          "removed": false
        },
        {
          "address": "0xc9dea685709d154ca1218bee1d409b3e44f9cb26",
          "topics": [
            "0x2f8788117e7eff1d82e926ec794901d17c78024a50270940304540a733656f0d",
            "0x0000000000000000000000000000000000000000000000000000000000000000",
            "0x0000000000000000000000001ca4ecaf0e13ca833c80da835deea15e1684361d",
            "0x000000000000000000000000abd7925b6a72937fa38f56a2aa466f17beffee65"
          ],
          "data": "0x",
          "blockHash": "0x6c17c6e6e4091eb6b7fd0120615e17fb981bfb2c0545929b3e38a6e908347b05",
          "blockNumber": "0x17fa73b",
          "blockTimestamp": "0x6a0ee1e3",
          "transactionHash": "0x89278c8fb60b3c9027596fe95066a7d2111de70dbfec91314c8354f0a6f411b4",
          "transactionIndex": "0x76",
          "logIndex": "0x1fc",
          "removed": false
        },
        {
          "address": "0xc0060bb5d333c1f2d3159058ae3223d4fd73abe4",
          "topics": [
            "0xf6391f5c32d9c69d2a47ea670b442974b53935d1edc7fd64eb21e047a839171b",
            "0x0000000000000000000000000000000000000000000000000000000000000000",
            "0x000000000000000000000000abd7925b6a72937fa38f56a2aa466f17beffee65",
            "0x000000000000000000000000abd7925b6a72937fa38f56a2aa466f17beffee65"
          ],
          "data": "0x",
          "blockHash": "0x6c17c6e6e4091eb6b7fd0120615e17fb981bfb2c0545929b3e38a6e908347b05",
          "blockNumber": "0x17fa73b",
          "blockTimestamp": "0x6a0ee1e3",
          "transactionHash": "0x89278c8fb60b3c9027596fe95066a7d2111de70dbfec91314c8354f0a6f411b4",
          "transactionIndex": "0x76",
          "logIndex": "0x1fd",
          "removed": false
        },
        {
          "address": "0xc9dea685709d154ca1218bee1d409b3e44f9cb26",
          "topics": [
            "0xf6391f5c32d9c69d2a47ea670b442974b53935d1edc7fd64eb21e047a839171b",
            "0x0000000000000000000000000000000000000000000000000000000000000000",
            "0x000000000000000000000000abd7925b6a72937fa38f56a2aa466f17beffee65",
            "0x000000000000000000000000abd7925b6a72937fa38f56a2aa466f17beffee65"
          ],
          "data": "0x",
          "blockHash": "0x6c17c6e6e4091eb6b7fd0120615e17fb981bfb2c0545929b3e38a6e908347b05",
          "blockNumber": "0x17fa73b",
          "blockTimestamp": "0x6a0ee1e3",
          "transactionHash": "0x89278c8fb60b3c9027596fe95066a7d2111de70dbfec91314c8354f0a6f411b4",
          "transactionIndex": "0x76",
          "logIndex": "0x1fe",
          "removed": false
        },
        {
          "address": "0xabd7925b6a72937fa38f56a2aa466f17beffee65",
          "topics": [
            "0x294d7332554fd6d7c4835e9bdb0ef5cf39b2acd40e7211b84bc6853f641c77de",
            "0x0000000000000000000000001ca4ecaf0e13ca833c80da835deea15e1684361d",
            "0x0000000000000000000000004a412f032536f6c4139f24b813872f8a44cf7148"
          ],
          "data": "0x000000000000000000000000190451a957bb48675da9376c242449b366ab42a7000000000000000000000000c0060bb5d333c1f2d3159058ae3223d4fd73abe4000000000000000000000000c9dea685709d154ca1218bee1d409b3e44f9cb26",
          "blockHash": "0x6c17c6e6e4091eb6b7fd0120615e17fb981bfb2c0545929b3e38a6e908347b05",
          "blockNumber": "0x17fa73b",
          "blockTimestamp": "0x6a0ee1e3",
          "transactionHash": "0x89278c8fb60b3c9027596fe95066a7d2111de70dbfec91314c8354f0a6f411b4",
          "transactionIndex": "0x76",
          "logIndex": "0x1ff",
          "removed": false
        }
      ],
      "logsBloom": "0x000000040000000000000000000000000000000001000000040000000000000000000000000000000000000080000000002000001000000000000000080000000000000000000000100000000000000000000000000000000000000010000040400000000200000000000000000008000000000000000000800000040000000000000000400000000008000400000000000000000010800040000000000080008000100000000080000000000000000000000000000000000010000040000000000010000000000000000000000000000000000040060001000002000000a4000000000002000000000020000010000000000000000000080000000000000000",
      "transactionHash": "0x89278c8fb60b3c9027596fe95066a7d2111de70dbfec91314c8354f0a6f411b4",
      "transactionIndex": "0x76",
      "blockHash": "0x6c17c6e6e4091eb6b7fd0120615e17fb981bfb2c0545929b3e38a6e908347b05",
      "blockNumber": "0x17fa73b",
      "gasUsed": "0x3091f1",
      "effectiveGasPrice": "0x92280fa",
      "from": "0x1ca4ecaf0e13ca833c80da835deea15e1684361d",
      "to": "0xabd7925b6a72937fa38f56a2aa466f17beffee65",
      "contractAddress": null
    },
    {
      "type": "0x2",
      "status": "0x1",
      "cumulativeGasUsed": "0x2029303",
      "logs": [
        {
          "address": "0x190451a957bb48675da9376c242449b366ab42a7",
          "topics": [
            "0x2f8788117e7eff1d82e926ec794901d17c78024a50270940304540a733656f0d",
            "0x68bf109b95a5c15fb2bb99041323c27d15f8675e11bf7420a1cd6ad64c394f46",
            "0x0000000000000000000000008a25a24ede9482c4fc0738f99611be58f1c839ab",
            "0x0000000000000000000000001ca4ecaf0e13ca833c80da835deea15e1684361d"
          ],
          "data": "0x",
          "blockHash": "0x6c17c6e6e4091eb6b7fd0120615e17fb981bfb2c0545929b3e38a6e908347b05",
          "blockNumber": "0x17fa73b",
          "blockTimestamp": "0x6a0ee1e3",
          "transactionHash": "0xa5ad72ab837af3142b5e58286d8736422c06562e83c092d370502f177f502aa4",
          "transactionIndex": "0x148",
          "logIndex": "0x362",
          "removed": false
        }
      ],
      "logsBloom": "0x00000004000000000000000000008000000000000000000000000000000000000000000000000000000000000000000000000000000000000000000000000000000000000000000000000000000000000000000000000000000000000000004000000000000000000000000000001000080000000000000080000004000000000000000000000000000000000000000000000000000000000000000001008000000000008000000000000000008000000000000000000000001000000000000000000000000000000000000000000000000000000000000100000000000080000000000000000000000000000000000000000000000000080000000000000000",
      "transactionHash": "0xa5ad72ab837af3142b5e58286d8736422c06562e83c092d370502f177f502aa4",
      "transactionIndex": "0x148",
      "blockHash": "0x6c17c6e6e4091eb6b7fd0120615e17fb981bfb2c0545929b3e38a6e908347b05",
      "blockNumber": "0x17fa73b",
      "gasUsed": "0x1ce7b",
      "effectiveGasPrice": "0x92280fa",
      "from": "0x1ca4ecaf0e13ca833c80da835deea15e1684361d",
      "to": "0x190451a957bb48675da9376c242449b366ab42a7",
      "contractAddress": null
    },
    {
      "type": "0x2",
      "status": "0x1",
      "cumulativeGasUsed": "0x2359d2e",
      "logs": [
        {
          "address": "0x190451a957bb48675da9376c242449b366ab42a7",
          "topics": [
            "0x2f8788117e7eff1d82e926ec794901d17c78024a50270940304540a733656f0d",
            "0x5dd5329f8a165b257688cafdac031f994a6462efe3eb1db3ef27aab8459f61d1",
            "0x00000000000000000000000090d8c80c028b4c09c0d8dcaab9bbb057f0513431",
            "0x0000000000000000000000001ca4ecaf0e13ca833c80da835deea15e1684361d"
          ],
          "data": "0x",
          "blockHash": "0xa2ac6624bc8733a21359d8784f0a22bfd94f7d3bcbded5124198dce947646367",
          "blockNumber": "0x17fa73c",
          "blockTimestamp": "0x6a0ee1ef",
          "transactionHash": "0x8bc13f77ce90f6514e2ebc850152102d710eb4d15ed0e671b8db29d9442d8203",
          "transactionIndex": "0xe9",
          "logIndex": "0x391",
          "removed": false
        }
      ],
      "logsBloom": "0x00000004000000000000000000000200000000000000000000000000000000000000000000000000000000000000000000000000000000000000000000000008000000040000000000000000000000000000000000000000000000000000004000000000000000000000000000000000000000000000000080000004000000000000000000000000000000000000000000000000000000000000000000008000000000000000000000000000000000000000000000000000001000000000000000000000000000000000200000000000000000000000000100000001000080000000000000000000000000000000000000000000000000080001000000000000",
      "transactionHash": "0x8bc13f77ce90f6514e2ebc850152102d710eb4d15ed0e671b8db29d9442d8203",
      "transactionIndex": "0xe9",
      "blockHash": "0xa2ac6624bc8733a21359d8784f0a22bfd94f7d3bcbded5124198dce947646367",
      "blockNumber": "0x17fa73c",
      "gasUsed": "0x1ce7b",
      "effectiveGasPrice": "0x96dd419",
      "from": "0x1ca4ecaf0e13ca833c80da835deea15e1684361d",
      "to": "0x190451a957bb48675da9376c242449b366ab42a7",
      "contractAddress": null
    },
    {
      "type": "0x2",
      "status": "0x1",
      "cumulativeGasUsed": "0x1273af8",
      "logs": [
        {
          "address": "0x190451a957bb48675da9376c242449b366ab42a7",
          "topics": [
            "0xbd79b86ffe0ab8e8776151514217cd7cacd52c909f66475c3af44e129f0b00ff",
            "0x68bf109b95a5c15fb2bb99041323c27d15f8675e11bf7420a1cd6ad64c394f46",
            "0x0000000000000000000000000000000000000000000000000000000000000000",
            "0x5dd5329f8a165b257688cafdac031f994a6462efe3eb1db3ef27aab8459f61d1"
          ],
          "data": "0x",
          "blockHash": "0x7fe8c2115d77f1536f7cc1bed157b7f394b56b5a8136ead9cba3ceb7a2b2a0b5",
          "blockNumber": "0x17fa73d",
          "blockTimestamp": "0x6a0ee1fb",
          "transactionHash": "0x22dcb5adaf86be57c0c956cfc1639a820aa908a19dfb4f378a85146e05f5e0a8",
          "transactionIndex": "0xc2",
          "logIndex": "0x1b7",
          "removed": false
        }
      ],
      "logsBloom": "0x00000000000000000800000000000000080000000000000000000000000000000000000000000000000000000000000000000000000000000000000000000008000000040000000000000000000000000000000000000000000000000000000000000000020000400000000000000800080000000000000080000004000000000000000000000000000000000000000000000000000000000000000001000000000000000000000000000000008000000000000000000000000000000000000000000000000000000000000000000000000000000000000000000001000020000000000000000000000000000000000000000000000000080000000000000000",
      "transactionHash": "0x22dcb5adaf86be57c0c956cfc1639a820aa908a19dfb4f378a85146e05f5e0a8",
      "transactionIndex": "0xc2",
      "blockHash": "0x7fe8c2115d77f1536f7cc1bed157b7f394b56b5a8136ead9cba3ceb7a2b2a0b5",
      "blockNumber": "0x17fa73d",
      "gasUsed": "0xbee2",
      "effectiveGasPrice": "0x9d48bc9",
      "from": "0x1ca4ecaf0e13ca833c80da835deea15e1684361d",
      "to": "0x190451a957bb48675da9376c242449b366ab42a7",
      "contractAddress": null
    },
    {
      "type": "0x2",
      "status": "0x1",
      "cumulativeGasUsed": "0x8fd51b",
      "logs": [
        {
          "address": "0x190451a957bb48675da9376c242449b366ab42a7",
          "topics": [
            "0x2f8788117e7eff1d82e926ec794901d17c78024a50270940304540a733656f0d",
            "0x0000000000000000000000000000000000000000000000000000000000000000",
            "0x0000000000000000000000003300f198988e4c9c63f75df86de36421f06af8c4",
            "0x0000000000000000000000001ca4ecaf0e13ca833c80da835deea15e1684361d"
          ],
          "data": "0x",
          "blockHash": "0x6db29823f16ef2d63a231321f701645e585c66fbda993db0708dcb7aebcb2ace",
          "blockNumber": "0x17fa73e",
          "blockTimestamp": "0x6a0ee207",
          "transactionHash": "0x13d55a944df52cda610c423d60bf1d1adf74772481e0ae6fff2a5750cd2db7cd",
          "transactionIndex": "0x4f",
          "logIndex": "0x102",
          "removed": false
        }
      ],
      "logsBloom": "0x000000040000000000000000000000000000000000000000000000000000000000000000000000000000000000000000000000000000000000000000000000000000000000000000000000000000000000000100000000000000000000000040000000000300000000000000000008000000000000000000800000040000000000000000000000000000000000000000000000000000000000000000000080000000000000000000000000000000000000000000000000000010000000000000000000000000000000000000000000000000000000000001000000020000a0000000000000000000000000000000000000000000000000080000000000000000",
      "transactionHash": "0x13d55a944df52cda610c423d60bf1d1adf74772481e0ae6fff2a5750cd2db7cd",
      "transactionIndex": "0x4f",
      "blockHash": "0x6db29823f16ef2d63a231321f701645e585c66fbda993db0708dcb7aebcb2ace",
      "blockNumber": "0x17fa73e",
      "gasUsed": "0x18a23",
      "effectiveGasPrice": "0x9822fd3",
      "from": "0x1ca4ecaf0e13ca833c80da835deea15e1684361d",
      "to": "0x190451a957bb48675da9376c242449b366ab42a7",
      "contractAddress": null
    },
    {
      "type": "0x2",
      "status": "0x1",
      "cumulativeGasUsed": "0x960158",
      "logs": [
        {
          "address": "0xc0060bb5d333c1f2d3159058ae3223d4fd73abe4",
          "topics": [
            "0x2f8788117e7eff1d82e926ec794901d17c78024a50270940304540a733656f0d",
            "0x0000000000000000000000000000000000000000000000000000000000000000",
            "0x0000000000000000000000003300f198988e4c9c63f75df86de36421f06af8c4",
            "0x0000000000000000000000001ca4ecaf0e13ca833c80da835deea15e1684361d"
          ],
          "data": "0x",
          "blockHash": "0x6db29823f16ef2d63a231321f701645e585c66fbda993db0708dcb7aebcb2ace",
          "blockNumber": "0x17fa73e",
          "blockTimestamp": "0x6a0ee207",
          "transactionHash": "0x6a502d313dc82f99244748ba87b497f22bddafde56f04c77321c19f7d3354d50",
          "transactionIndex": "0x53",
          "logIndex": "0x109",
          "removed": false
        }
      ],
      "logsBloom": "0x000000040000000000000000000000000000000000000000000000000000000000000000000000000000000000000000000000000000000000000000000000000000000000000000000000000000000000000100000000000000000000000040000000000300000000000000000008000000000000000000000000000000000000000000000000000000000000000000000000000010000000000000000080008000100000000000000000000000000000000000000000000010000000000000000000000000000000000000000000000000000000000001000000020000a0000000000000000000000000000000000000000000000000000000000000000000",
      "transactionHash": "0x6a502d313dc82f99244748ba87b497f22bddafde56f04c77321c19f7d3354d50",
      "transactionIndex": "0x53",
      "blockHash": "0x6db29823f16ef2d63a231321f701645e585c66fbda993db0708dcb7aebcb2ace",
      "blockNumber": "0x17fa73e",
      "gasUsed": "0xc790",
      "effectiveGasPrice": "0x9822fd3",
      "from": "0x1ca4ecaf0e13ca833c80da835deea15e1684361d",
      "to": "0xc0060bb5d333c1f2d3159058ae3223d4fd73abe4",
      "contractAddress": null
    },
    {
      "type": "0x2",
      "status": "0x1",
      "cumulativeGasUsed": "0x15eadd4",
      "logs": [
        {
          "address": "0xc9dea685709d154ca1218bee1d409b3e44f9cb26",
          "topics": [
            "0x2f8788117e7eff1d82e926ec794901d17c78024a50270940304540a733656f0d",
            "0x0000000000000000000000000000000000000000000000000000000000000000",
            "0x0000000000000000000000003300f198988e4c9c63f75df86de36421f06af8c4",
            "0x0000000000000000000000001ca4ecaf0e13ca833c80da835deea15e1684361d"
          ],
          "data": "0x",
          "blockHash": "0xce66a787449f0edc04ada2e704a6f6782adf55e1edf34fbaaecb631ea188ea0c",
          "blockNumber": "0x17fa740",
          "blockTimestamp": "0x6a0ee21f",
          "transactionHash": "0x8c314a4f90c51bcc0d6929f25a676b2c14a1bf0daf7044f45ce11f11774554d7",
          "transactionIndex": "0xda",
          "logIndex": "0x2d9",
          "removed": false
        }
      ],
      "logsBloom": "0x000000040000000000000000000000000000000000000000000000000000000000000000000000000000000000000000000000001000000000000000000000000000000000000000000000000000000000000100000000000000000000000040000000000300000000000000000008000000000000000000000000000000000000000000000000000000000000000000000000000000000000000000000080000000000000000080000000000000000000000000000000000010000000000000000000000000000000000000000000000000000000020001000000020000a0000000000000000000000000000000000000000000000000000000000000000000",
      "transactionHash": "0x8c314a4f90c51bcc0d6929f25a676b2c14a1bf0daf7044f45ce11f11774554d7",
      "transactionIndex": "0xda",
      "blockHash": "0xce66a787449f0edc04ada2e704a6f6782adf55e1edf34fbaaecb631ea188ea0c",
      "blockNumber": "0x17fa740",
      "gasUsed": "0xc789",
      "effectiveGasPrice": "0x8a9c5e8",
      "from": "0x1ca4ecaf0e13ca833c80da835deea15e1684361d",
      "to": "0xc9dea685709d154ca1218bee1d409b3e44f9cb26",
      "contractAddress": null
    },
    {
      "type": "0x2",
      "status": "0x1",
      "cumulativeGasUsed": "0x15f63f7",
      "logs": [
        {
          "address": "0x190451a957bb48675da9376c242449b366ab42a7",
          "topics": [
            "0xf6391f5c32d9c69d2a47ea670b442974b53935d1edc7fd64eb21e047a839171b",
            "0x0000000000000000000000000000000000000000000000000000000000000000",
            "0x0000000000000000000000001ca4ecaf0e13ca833c80da835deea15e1684361d",
            "0x0000000000000000000000001ca4ecaf0e13ca833c80da835deea15e1684361d"
          ],
          "data": "0x",
          "blockHash": "0xce66a787449f0edc04ada2e704a6f6782adf55e1edf34fbaaecb631ea188ea0c",
          "blockNumber": "0x17fa740",
          "blockTimestamp": "0x6a0ee21f",
          "transactionHash": "0xb61453e88b5bf346e3a96d77ff7be68fd8e2e634b934c902b32d03b7f6599201",
          "transactionIndex": "0xdb",
          "logIndex": "0x2da",
          "removed": false
        }
      ],
      "logsBloom": "0x000000000000000000000000000000000000000000000000000000000000000000000000000000000000000000000000002000000000000000000000000000000000000000000000000000000000000000000000000000000000000000000040400000000200000000000000000008000000000000000000800000040000000000000000400000000000000000000000000000000000000000000000000080000000000000000000000000000000000000000000000000000000000000000000000000000000000000000000000000000000000000000000000000000000a0000000000000000000000000000000000000000000000000080000000000000000",
      "transactionHash": "0xb61453e88b5bf346e3a96d77ff7be68fd8e2e634b934c902b32d03b7f6599201",
      "transactionIndex": "0xdb",
      "blockHash": "0xce66a787449f0edc04ada2e704a6f6782adf55e1edf34fbaaecb631ea188ea0c",
      "blockNumber": "0x17fa740",
      "gasUsed": "0xb623",
      "effectiveGasPrice": "0x8a9c5e8",
      "from": "0x1ca4ecaf0e13ca833c80da835deea15e1684361d",
      "to": "0x190451a957bb48675da9376c242449b366ab42a7",
      "contractAddress": null
    },
    {
      "type": "0x2",
      "status": "0x1",
      "cumulativeGasUsed": "0x176b78e",
      "logs": [
        {
          "address": "0xc0060bb5d333c1f2d3159058ae3223d4fd73abe4",
          "topics": [
            "0xf6391f5c32d9c69d2a47ea670b442974b53935d1edc7fd64eb21e047a839171b",
            "0x0000000000000000000000000000000000000000000000000000000000000000",
            "0x0000000000000000000000001ca4ecaf0e13ca833c80da835deea15e1684361d",
            "0x0000000000000000000000001ca4ecaf0e13ca833c80da835deea15e1684361d"
          ],
          "data": "0x",
          "blockHash": "0xce66a787449f0edc04ada2e704a6f6782adf55e1edf34fbaaecb631ea188ea0c",
          "blockNumber": "0x17fa740",
          "blockTimestamp": "0x6a0ee21f",
          "transactionHash": "0x16c390ee27a164bb8ca26aabca9b58196dd151b0a4cab57b3f7b1e0af9d89912",
          "transactionIndex": "0xfc",
          "logIndex": "0x2f5",
          "removed": false
        }
      ],
      "logsBloom": "0x000000000000000000000000000000000000000000000000000000000000000000000000000000000000000000000000002000000000000000000000000000000000000000000000000000000000000000000000000000000000000000000040400000000200000000000000000008000000000000000000000000000000000000000000400000000000000000000000000000000010000000000000000080008000100000000000000000000000000000000000000000000000000000000000000000000000000000000000000000000000000000000000000000000000a0000000000000000000000000000000000000000000000000000000000000000000",
      "transactionHash": "0x16c390ee27a164bb8ca26aabca9b58196dd151b0a4cab57b3f7b1e0af9d89912",
      "transactionIndex": "0xfc",
      "blockHash": "0xce66a787449f0edc04ada2e704a6f6782adf55e1edf34fbaaecb631ea188ea0c",
      "blockNumber": "0x17fa740",
      "gasUsed": "0x6a16",
      "effectiveGasPrice": "0x8a9c5e8",
      "from": "0x1ca4ecaf0e13ca833c80da835deea15e1684361d",
      "to": "0xc0060bb5d333c1f2d3159058ae3223d4fd73abe4",
      "contractAddress": null
    },
    {
      "type": "0x2",
      "status": "0x1",
      "cumulativeGasUsed": "0x177215a",
      "logs": [
        {
          "address": "0xc9dea685709d154ca1218bee1d409b3e44f9cb26",
          "topics": [
            "0xf6391f5c32d9c69d2a47ea670b442974b53935d1edc7fd64eb21e047a839171b",
            "0x0000000000000000000000000000000000000000000000000000000000000000",
            "0x0000000000000000000000001ca4ecaf0e13ca833c80da835deea15e1684361d",
            "0x0000000000000000000000001ca4ecaf0e13ca833c80da835deea15e1684361d"
          ],
          "data": "0x",
          "blockHash": "0xce66a787449f0edc04ada2e704a6f6782adf55e1edf34fbaaecb631ea188ea0c",
          "blockNumber": "0x17fa740",
          "blockTimestamp": "0x6a0ee21f",
          "transactionHash": "0x36f07fd316fdf2dee17922258c8055f1d7da26a64bc8fa2db9da439b772b0bb9",
          "transactionIndex": "0xfd",
          "logIndex": "0x2f6",
          "removed": false
        }
      ],
      "logsBloom": "0x000000000000000000000000000000000000000000000000000000000000000000000000000000000000000000000000002000001000000000000000000000000000000000000000000000000000000000000000000000000000000000000040400000000200000000000000000008000000000000000000000000000000000000000000400000000000000000000000000000000000000000000000000080000000000000000080000000000000000000000000000000000000000000000000000000000000000000000000000000000000000000020000000000000000a0000000000000000000000000000000000000000000000000000000000000000000",
      "transactionHash": "0x36f07fd316fdf2dee17922258c8055f1d7da26a64bc8fa2db9da439b772b0bb9",
      "transactionIndex": "0xfd",
      "blockHash": "0xce66a787449f0edc04ada2e704a6f6782adf55e1edf34fbaaecb631ea188ea0c",
      "blockNumber": "0x17fa740",
      "gasUsed": "0x69cc",
      "effectiveGasPrice": "0x8a9c5e8",
      "from": "0x1ca4ecaf0e13ca833c80da835deea15e1684361d",
      "to": "0xc9dea685709d154ca1218bee1d409b3e44f9cb26",
      "contractAddress": null
    }
  ],
  "libraries": [],
  "pending": [],
  "returns": {},
  "timestamp": 1779360351049,
  "chain": 1,
  "commit": "b609331"
}